:02000002D0002C
:1040000000400D00506D0D00000006000C00050181
:084010000401DB0700000000C1
:04401800D8680D0057
:10401C0009480A49884208B505D0094A824202D0AB
:10402C00121A02F023FB0748074A0021121A02F069
:10403C0045FB014808BD00BF70E50320B46C0D00C2
:10404C00E4E50320E4E50320F0E7032070B5074E18
:10405C00074C01F099FDA41BA4080025A54200D132
:10406C0070BD56F8043B98470135F7E7846C0D009A
:10407C00A86C0D0000F061B808B500F067F8BDE859
:10408C00084001F043BD00F037BB00F035BB00F039
:10409C003BBB000008B5034A00210C2000F090FA4D
:1040AC00FEE700BFAD430D000078B0FA80F0400988
:1040BC0070470123037070477047006A0368DB6820
:1040CC00184700000A4B10B50446036000F05EFE72
:1040DC00214601F060F801F05BFE01F04DFE204638
:1040EC00044B40F8043B00F043FF204610BD00BFDA
:1040FC0028690D0010690D0010B50446FFF7E2FFAA
:10410C002046242102F09DFA204610BD0EB410B5B5
:10411C008DB00FAA016852F8044B039200232020A3
:10412C00CDE90403CDE900421E2004AA00F050FAA8
:10413C000DB0BDE8104003B0704708B501F028FE83
:10414C00BDE808404FF4E13101F012BE08B5084B50
:10415C00188802F019FA074B0749186002460748FD
:10416C00FFF7D4FFBDE808404FF47A7001F08CBC27
:10417C0070E503200CE60320EC680D0038E6032004
:10418C0070B5D0E900531426044606FB0356AE4224
:10419C0004D0284600F04EFB1435F8E7206800F0F8
:1041AC00B3FA204670BD2DE9F843B1F1000807467B
:1041BC0035DD4FF0140909FB08F000F09DFA0546B7
:1041CC00A8B3D7E90046844209FB064615D28642BD
:1041DC0014D9143EA4F11409341B0444B1451FD066
:1041EC002CB13146204600F0A1FB337C23743046C1
:1041FC0000F020FB143E143CF0E711D0A946A64277
:10420C000ED02146484600F091FB237C89F81030F3
:10421C00204600F00FFB143409F11409EFE70025D8
:10422C00386800F071FA3D60C7F808800120BDE8DD
:10423C00F8832DE9F0410023C0E9003383600D467B
:10424C0049689942044617DDFFF7ADFFA0B1D5E9E7
:10425C0000634FF01408276808FB0368B04509D0C9
:10426C002FB13146384600F07BFB337C3B7414365F
:10427C001437F3E76B6863602046BDE8F0810000FB
:10428C0030B593B02B490DA800F01FFB1E238DF801
:10429C0044300121002301A8CDE901330393FFF73A
:1042AC0082FF50B1019C34B10DA9204600F058FB9F
:1042BC009DF8443023740123029301F069FD01A998
:1042CC00054604A81C4CFFF7B4FF04A907A8FFF788
:1042DC00B0FF1A4B236007A90AA8FFF7AAFF0AAA86
:1042EC002821201D01F0AAF80AA8FFF749FF07A80A
:1042FC00FFF746FF124B2360256204A8FFF740FF2F
:10430C00104B236001F044FD4FF4165101F030FDC9
:10431C0000F03CFD214601F023F801A8FFF730FF27
:10432C000DA800F087FA084A0849204602F084F9E3
:10433C0013B030BD03690D00E8E5032010690D00D2
:10434C00006A0D0028690D00E4E50320D1400D0042
:10435C0008B5024B1B689B68019308BD68020300FB
:10436C0008B5024B1B68DB68019308BD68020300AB
:10437C0008B5024B1B685B68019308BD2C02030057
:10438C0008B5024B1B681B6B019308BD2C02030084
:10439C0008B5024B1B685B68019308BD180203004B
:1043AC0008B5024B1B68DB68019308BD18020300BB
:1043BC0008B5024B1B685B69019308BD180203002A
:1043CC0008B5024B1B685B6C019308BD48020300E7
:1043DC0008B5024B1B689B6C019308BD4802030097
:1043EC0008B5024B1B68DB6C019308BD4802030047
:1043FC0008B5024B1B685B6D019308BD48020300B6
:10440C0008B5024B1B685B69019308BD640203008D
:10441C0008B5024B1B681B68019308BD3C020300E6
:10442C0008B5024B1B689B68019308BD3C02030056
:10443C0008B5024B1B68DB68019308BD3C02030006
:10444C0008B5024B1B681B69019308BD3C020300B5
:10445C0008B5024B1B685B69019308BD3C02030065
:10446C0008B5024B1B689B69019308BD3C02030015
:10447C0008B5024B1B68DB69019308BD3C020300C5
:10448C0008B5024B1B681B6A019308BD3C02030074
:10449C0008B5024B1B689B6A019308BD3C020300E4
:1044AC0008B5024B1B68DB6A019308BD3C02030094
:1044BC0008B5024B1B681B6A019308BD2802030058
:1044CC0008B5024B1B685B6A019308BD2802030008
:1044DC0008B5024B1B689B6A019308BD28020300B8
:1044EC0008B5024B1B68DB6A019308BD2802030068
:1044FC0008B5024B1B681B6B019308BD2802030017
:10450C0008B5024B1B685B6B019308BD28020300C6
:10451C0008B5024B1B681B6C019308BD28020300F5
:10452C0008B5024B1B68DB69019308BD3002030020
:10453C0008B5024B1B681B6A019308BD30020300CF
:10454C0008B5024B1B681B68019308BD4C020300A5
:10455C0008B5024B1B685B68019308BD4C02030055
:10456C0008B5024B1B689B68019308BD4C02030005
:10457C0008B5024B1B681B69019308BD4C02030074
:10458C0008B5024B1B685B69019308BD4C02030024
:10459C0008B5024B1B689B69019308BD4C020300D4
:1045AC0008B5024B1B68DB69019308BD4C02030084
:1045BC0008B5024B1B681B6A019308BD4C02030033
:1045CC0008B5024B1B685B6B019308BD60020300CE
:1045DC0008B5024B1B685B6D019308BD60020300BC
:1045EC0008B5024B1B68DB6E019308BD600203002B
:1045FC0008B5024B1B681B6F019308BD60020300DA
:10460C0008B5024B1B685B68019308BD20020300D0
:10461C0008B5024B1B685B69019308BD20020300BF
:10462C0008B5034B1B68D3F88830019308BD000014
:10463C002002030008B5034B1B68D3F89430019398
:10464C0008BD00002002030008B5024B1B685B6824
:10465C00019308BD4002030008B5024B1B689B6820
:10466C00019308BD4002030008B5024B1B68DB68D0
:10467C00019308BD4002030008B5024B1B681B697F
:10468C00019308BD4002030008B5024B1B685B692F
:10469C00019308BD4002030008B5024B1B689B69DF
:1046AC00019308BD4002030008B5024B1B68DB698F
:1046BC00019308BD4002030008B5024B1B681B6A3E
:1046CC00019308BD4002030008B5024B1B681B6B2D
:1046DC00019308BD4002030008B5024B1B685B6BDD
:1046EC00019308BD4002030008B5024B1B68DB6B4D
:1046FC00019308BD4402030008B5024B1B681B68FC
:10470C00019308BD1C02030008B5024B1B685B68D3
:10471C00019308BD1C02030008B5024B1B689B6883
:10472C00019308BD1C02030008B5024B1B685B6AB1
:10473C00019308BD1C02030008B5024B1B685B6C9F
:10474C00019308BD1C020300002240681146FFF7CC
:10475C00B3BF002240681146FFF7BEBF406800227D
:10476C00FFF7B2BF4068002281F00101FFF79CBF48
:10477C00002340681A461946FFF78EBF0023406895
:10478C001A461946FFF780BF002240681146FFF712
:10479C0073BF002240681146FFF75EBF40680022DD
:1047AC000221FFF761BF002340681A46FFF74CBF98
:1047BC00024B03225A60024A1A60704710E603202B
:1047CC0040690D0010B5044608462170FFF7A8FE9D
:1047DC0000236360204610BD10B50446006818B174
:1047EC00FFF792FF0023236010BD10B50446FFF7BE
:1047FC00F3FF204610BD000010B5094B094C0222F6
:10480C0000201A60084B2060A080A071A360FFF705
:10481C00F7FE2046054A0649BDE8104001F00CBFE2
:10482C0024E6032018E603200000FFFFE4E5032044
:10483C00F7470D0010B504460068FFF765FF2046EA
:10484C0010BD10B50446006808B1FFF75DFF0023EA
:10485C00C4E90133236010BD38B504460D46006829
:10486C000131FFF759FF10B1C4E90005012038BD33
:10487C0010B50368044623B143688B4201D3012071
:10488C0010BD2046FFF7E8FF0028F9D0A368002BE5
:10489C00F5D122681370F2E737B50D461146019237
:1048AC000446FFF7E5FF019A28B92046FFF7C9FF38
:1048BC00204603B030BDA2602946206801F0D6FE28
:1048CC002268A3680021D154F2E7002313B5C0E994
:1048DC00003304468360037341B10846019101F033
:1048EC0042FF019902462046FFF7D6FF204602B050
:1048FC0010BD38B5054600680C4668B16A688B680F
:10490C009A4207D3096801F026FFA368AB60002325
:10491C00A36038BDFFF7F8FE23682B6063686B60FB
:10492C00A368AB600023C4E90033F1E710B50023A2
:10493C00C0E90033044683600373FFF7DAFF2046B7
:10494C0010BD884210B5044605D00B682BB18A689F
:10495C001946FFF7A1FF204610BDFFF772FFFAE7DB
:10496C0010B500230446C0E9003383600373FFF7DE
:10497C00E8FF204610BD10B5036804469B689847B5
:10498C00A368013BA3602BB923682046DB68BDE814
:10499C001040184710BD10B50446006808B1FFF769
:1049AC0017FD204610BD0B68036013B15A68013225
:1049BC005A60704710B50446006828B14368013B43
:1049CC0043600BB9FFF7D7FF204610BD10B5064C5E
:1049DC00002320462360FFF7F3FC2046034A0449DA
:1049EC00BDE8104001F028BE28E60320E4E50320D2
:1049FC00A3490D00F8B506460D468F180024BD429C
:104A0C000CD0336815F8011B9B6830469847031E81
:104A1C0001DB1C44F3E7002C08BF1C462046F8BD04
:104A2C0013B50446084659B1019101F09CFE236868
:104A3C000199DB680246204602B0BDE810401847D9
:104A4C0002B010BD03689B68184738B50D210546A8
:104A5C00FFF7F8FF0A2104462846FFF7F3FF20442E
:104A6C0038BD30B58BB000238DF82430012A98BFA7
:104A7C000A2209AC0D46B1FBF2F101FB125303F013
:104A8C00FF03092B94BF30333733DBB2AA4204F84F
:104A9C00013DEFD92146FFF7C3FF0BB030BD2DE927
:104AAC00F04186B000AF05460E46381D1421144661
:104ABC003B60FFF739FE13280ED8391D2846FFF747
:104ACC00AFFF04461EB12846FFF7BFFF0444204643
:104ADC001837BD46BDE8F08100F1080323F0070349
:104AEC00E846ADEB030D2246411C3B686846FFF7D8
:104AFC001BFE69462846FFF793FF0446C546E1E7CF
:104B0C0080680368DB6818477047084611B10B686A
:104B1C005B681847704770477047704738B5044654
:104B2C000D4600682E2101F002FE2368C31A2B608B
:104B3C0023B1037803B1013023682060184638BDD7
:104B4C0010B50C21044601F07CFD204610BD10B5BB
:104B5C000421044601F075FD204610BD10B504215A
:104B6C00044601F06EFD204610BD08B501F0E9FDCC
:104B7C00B0FA80F0400908BD10B50C4601F008F9F8
:104B8C00844210D001F08CF9844205D101F088F9EF
:104B9C00BDE8104001F081B92CB1236820465B6858
:104BAC00BDE81040184710BD13B5044608460191E6
:104BBC0001F0D9FD01990246204602B0BDE8104033
:104BCC0001F094BC13B504460846019101F0CBFDED
:104BDC0023680199DB680246204602B0BDE810400C
:104BEC00184707B503688DF80710DB6801220DF133
:104BFC000701984703B05DF804FB0EB403B503AB93
:104C0C00002153F8042B006A0193FFF748FF02B010
:104C1C005DF804EB03B070472DE9F74FD0E9009530
:104C2C004FF0140808FB05F50093AB10184D174610
:104C3C005D434C46002D23DD6E1008FB06F004EBA3
:104C4C00000A3A46BAF804B0205801915F4528BFD3
:104C5C005A4601F090FD0199012378B95F4503D1C3
:104C6C00009A13703546E5E78CBF01200020002820
:104C7C00F8D0AE1B0AF11404013EF3E7C00FF6E7BF
:104C8C00A4EB09040248A410604303B0BDE8F08F04
:104C9C00CDCCCCCC7FB50369067E01910BB301B3AF
:104CAC00002500F10C04039503A901A8FFF736FFBA
:104CBC000146B0B10DF10B03039A8DF80B50204651
:104CCC00FFF7AAFF9DF80B305BB12468142303FB9C
:104CDC00004000F10804B0F90630002BA8BFDEB28A
:104CEC00E2E7304604B070BD10B50A4C2378BFF330
:104CFC005B8FDB070BD42046FFF7D6F938B1204683
:104D0C00FFF7D7F9044A0549054801F095FC04481A
:104D1C0010BD00BF30E60320E4E50320254B0D0059
:104D2C0074E5032010B50A4C2378BFF35B8FDB07C7
:104D3C000BD42046FFF7B8F938B12046FFF7B9F984
:104D4C00044A0549054801F077FC044810BD00BF32
:104D5C0034E60320E4E50320234B0D0078E5032023
:104D6C0038B500250446C0E90055C0E904558560F6
:104D7C00856140F8245FFFF723FBFFF7B5FFE06187
:104D8C00FFF7D0FF25732062204638BD10B50B4CC1
:104D9C002378BFF35B8FDB070ED42046FFF784F933
:104DAC0050B10748FFF7DCFF2046FFF782F9054AB0
:104DBC000549034801F040FC014810BD2CE60320D6
:104DCC003CE60320E4E503202D520D00024A034982
:104DDC0003480023FFF70CBC09510D0095500D0042
:104DEC0015500D0000231A4619461846FFF700BC53
:104DFC0037B50D6951F8043B0093044601A8FFF741
:104E0C00D2FD6A462946204601F01AFA01A8FFF79E
:104E1C00D1FD204603B030BD37B58D6851F8043B49
:104E2C000093044601A8FFF7BEFD6A4629462046BA
:104E3C0001F082FA01A8FFF7BDFD204603B030BD9A
:104E4C0037B5CD6851F8043B0093044601A8FFF731
:104E5C00AAFD6A462946204601F04AFA01A8FFF746
:104E6C00A9FD204603B030BD70B58AB00D46014691
:104E7C0004A8FFF7D1FF144E04A801F075FAE8B1AD
:104E8C0004A96846FFF7DCFF02983146FFF76DFE78
:104E9C00044610B12C1E18BF012401A8FFF78AFD8F
:104EAC00002CE9D004A96846FFF7A2FF684601F080
:104EBC00FDF9286001A8FFF77DFDDDE705A8FFF7E8
:104ECC0079FD0AB070BD00BF6C690D0037B50C469A
:104EDC0020461249154601F034FC48B900F058FF41
:104EEC004FF4165100F044FF00F052FF03B030BDF8
:104EFC000B49204601F025FC70B94FF4165301A95B
:104F0C0028460193FFF7B0FF00F0CAFF019900F0AB
:104F1C00C1FF00F0C5FFE9E70020E7E771690D006C
:104F2C0078690D0070B5D0E900531426044606FBD1
:104F3C000356AE4205D005F10800FFF7F3FF143518
:104F4C00F7E72068FFF7E0FB204670BD70B5D0E9AD
:104F5C000053044605EB0316AE4204D02846FFF777
:104F6C0069FC1035F8E72068FFF7CEFB204670BDD2
:104F7C0010B504460C30FFF7D5FF2046FFF7E6FFCF
:104F8C00204610BD10B5044B044640F8043BFFF717
:104F9C00EFFF204610BD00BF10690D0010B5044690
:104FAC00FFF7F0FF2046242101F04BFB204610BDFB
:104FBC0010B5034B03600446FFF7E4FF204610BD19
:104FCC00186A0D0010B50446FFF7F2FF20462421A5
:104FDC0001F037FB204610BD0022C0E9002210B5BD
:104FEC0082600C6804604C6844608C680A604A609B
:104FFC0084608A6010BD10B5036804461868FFF71A
:10500C00F7F9204610BD00002DE9F04F87B080461F
:10501C0003931C4B5B68C3F30803894616466BB9B4
:10502C00FFF7B4FE044600F12403406A0593FFF732
:10503C00D7F9237B2BB105A8FFF7DDFF07B0BDE83F
:10504C00F08F01232373D4E900535FFA89F905EB40
:10505C00830AAA4512D055F8047B3146381DFFF758
:10506C0019FE8145F5D33B68039A0092D3F808B03A
:10507C004A46334641463846D847EAE7002323736D
:10508C00D9E700BF00ED00E02DE9F74F9B461A4B26
:10509C005B68C3F308038046894616466BB9FFF775
:1050AC0075FE044600F12403406A0193FFF798F95A
:1050BC00237B2BB101A8FFF79EFF03B0BDE8F08F57
:1050CC0001232373D4E90053F6B205EB830A55454B
:1050DC000ED055F8047B5946381DFFF7DBFD864290
:1050EC00F5D33B684A46DB68414638469847EEE7BD
:1050FC0000232373DEE700BF00ED00E02DE9F34150
:10510C00164B5B68C3F3080305460F461BBBFFF742
:10511C003DFE00F124030446406A0193FFF760F959
:10512C00D4E90063462406EB8308B04509D101A8F5
:10513C00FFF761FFA542B4BF0020012002B0BDE81B
:10514C00F08156F8040B39460430FFF7A3FD844276
:10515C00A8BF0446E9E70020F0E700BF00ED00E03F
:10516C0070B50446D0E900020B4600EB8202824285
:10517C0007D001461D6851F8046BAE4203D00846B7
:10518C00F5E7002070BD521A01F07EFA6368013B0E
:10519C0063600120F6E71FB500F124030446406A62
:1051AC0001910393FFF71CF901A92046FFF7D8FFE3
:1051BC0018B163680BB9FFF715FE03A8FFF71BFFC7
:1051CC0004B010BD70B5D0E904561823044603FB97
:1051DC000656AE4215D005F110012046FFF7C0FF70
:1051EC0063680BB9FFF7FEFDE06929690368DB68AA
:1051FC009847696919B1206A0368DB6898471835C4
:10520C00E7E7D4E90453182606FB0356AE4204D054
:10521C002846FFF70FFB1835F8E70023636170BDD4
:10522C0073B50446FFF7DEFD04F12403606A0193B5
:10523C00FFF7D6F82046FFF7C5FF01A8FFF7DBFE06
:10524C00606A08B1FFF7C4F8D4E90453182606FBCA
:10525C000356AE4204D02846FFF7ECFA1835F8E7AF
:10526C002069FFF751FA2068FFF74EFA204602B08A
:10527C0070BD8842F8B506460C46154627D99042B3
:10528C0026D2A2F114056C1AA1F1140704440026CD
:10529C00AF423DD0A4B12B682360AB88A380B5F995
:1052AC000630E380C4E902662661AB68A360AE6099
:1052BC00E368EA68E260EB6023692A6922612B618A
:1052CC0005F10800FFF72EFE143D143CE0E71FD05B
:1052DC000027AC421CD0A6B123683360A388B380EE
:1052EC00B4F90630F380C6E902773761A368B3607E
:1052FC00A760F368E268F260E360336922693261A7
:10530C00236104F10800FFF70DFE14341436E0E7B6
:10531C00F8BDF8B5D0E901539D4204460E46174638
:10532C000DDB0135002D006804DDA900FFF7F4F951
:10533C0018B9F8BDFFF7E8F900202060A5602568D2
:10534C00626805EB86019200A2EB8602081D01F053
:10535C009BF945F826706368013363600120E8E728
:10536C0037B500F124030446406A01930D46FFF75C
:10537C0037F8D4E9003103EB810083421A460BD095
:10538C001268AA4203F10403F7D101A8FFF733FE18
:10539C000025284603B030BD2A462046FFF7B9FF4A
:1053AC0005460028F1D06368012B01D1FFF70EFDF3
:1053BC0001A8FFF720FEECE78842F8B504460D463D
:1053CC00164614D9904213D2A2F11006751AA1F107
:1053DC0010072C44B74218D01CB131462046FFF7B9
:1053EC00A5FA3046FFF726FA103E103CF2E70CD037
:1053FC00B5420AD01CB129462046FFF797FA284639
:10540C00FFF718FA10351034F2E7F8BD70B50E1E20
:10541C00054611DD3001FFF76FF9044658B1D5E9A7
:10542C00001201EB0212FFF7C7FF2868FFF76CF9B7
:10543C002C60AE60012070BD0024F6E72DE9F04F22
:10544C00914697B000230391D9F804100C9346228F
:10545C009942C0E90033C0E90233C0E90433CDE915
:10546C000A330446027623DCD9E90057142303FBE4
:10547C000757AF423BD029460DA8FFF757FA0DA9A5
:10548C0011A80B9EFFF752FADDE90B1399421BDAB8
:10549C000A9B0B9A03EB061603EB0212314606F13C
:1054AC001000FFF789FFEEB90B9B01330B9311E052
:1054BC000AA8FFF7ABFF0028D6D10AA8FFF746FDD4
:1054CC00204617B0BDE8F08F01310AA8FFF79EFF08
:1054DC000028DDD111A8FFF7ADF90DA8FFF7AAF947
:1054EC001435C6E711A93046FFF720FADCE7002691
:1054FC00CDE90D660F9637464FF0140ADDE90A2305
:10550C009E4280F297803301D35808930BB9013631
:10551C00F4E70AFB06F3099702930DAD09A908A855
:10552C00FFF7FCFA83460028F1D00146099A8DF862
:10553C001F700DF11F032846FFF76EFB9DF81F80AF
:10554C000190B8F1000F66D1BDF82430ADF84830A9
:10555C00CDE913884FF6FF73CDF844B0ADF84A305F
:10556C00CDF85480D5E9013293421ADB03F1010BDB
:10557C00BBF1000F4ADD0AFB0BF0FFF7BDF80490FE
:10558C00002845D0D5E900120AFB0212FFF771FE84
:10559C00049B28680493FFF7B7F8049B2B60C5F8AD
:1055AC0008B0019BD5F800B06A680AFB03F30BEB5B
:1055BC00030101F114000AFB02B204910593FFF7F9
:1055CC0058FE0499A9B1059B119A4BF80320BDF81C
:1055DC0048308B80BDF94A30CB80C1E902770F612E
:1055EC00139B8B60149B1397CB60159B14970B61CB
:1055FC0015976B6801336B6013A8FFF793FCB8F138
:10560C00000F08D00DA8FFF78DFC56E74346C0E706
:10561C004FF00108F0E7019B2D680AFB0355089B2E
:10562C001B782BB9D9F80030029A13441B7CEB8001
:10563C00083573E72168226062686360A3680B9287
:10564C000C9A0C93E368A2600D9A0D932369E260A7
:10565C000E9A0E93636922610F9A0F93039B0A9122
:10566C0062612376CEE700007FB50546094B45F80D
:10567C00043B04460E4601A81146FEF7DAFD01AACA
:10568C0031462846FFF7DAFE01A8FEF779FD2046E1
:10569C0004B070BD10690D00F0B50F4687B02649F7
:1056AC000C9C384616461D4601F04BF800BBE4B185
:1056BC0029466846FFF790FC2049242000F0C3FFE0
:1056CC00054670B1694603A8FEF7B3FD03AA31463F
:1056DC002846FFF7C9FF03A8FEF752FD184B2C62B2
:1056EC002B606846FEF74CFD2C46204607B0F0BDFB
:1056FC001449384601F025F8E0B9002CF5D02946BC
:10570C006846FFF769FC0D49242000F09CFF054614
:10571C000028E6D0694603A8FEF78BFD03AA3146A4
:10572C002846FFF7A1FF03A8FEF72AFD064B2B60C6
:10573C002C62D6E70024D8E780690D00816B0D0040
:10574C00186A0D0084690D00006A0D00014B024AB5
:10575C001A60704738E6032003690D002DE9F04705
:10576C00089DD0F8209004460E461746984600F047
:10577C000FFB81454CD02B79190704D56A69544924
:10578C002046FFF73AFAB8F1000F0DD05B21204606
:10579C00FFF727FA41462046FFF714FA23684D49D4
:1057AC00DB680222204698472B79DA0723D5D5F8F7
:1057BC0008802F21404600F0F0FF08B100F10108ED
:1057CC0041462046FFF7FEF92B799B0708D53A2175
:1057DC002046FFF706FAEA683F492046FFF70DFA24
:1057EC002A79236812F0040FDB6814BF3B493C494B
:1057FC000222204698472B7958071DD529690B465C
:10580C001A4613F8010B60B1202808D11946F7E7A6
:10581C00344800F01AFC0028ADD0BDE8F0872828E9
:10582C00EED12368521ADB682046984723682E492C
:10583C00DB6804222046984700213846FEF7D0FE4C
:10584C0001462046FFF7BEF923682549DB68022292
:10585C00204698471EB131462046FFF7B3F92B7905
:10586C0013F0300F2CD023682049DB68022220462D
:10587C0098472B79D9060AD523681D49DB6807227E
:10588C0020469847AA691B492046FFF7B6F92B79A1
:10589C009A0611D5DB0605D523681049DB68022270
:1058AC002046984723681449DB6820460A2298470B
:1058BC00E9692046FFF786F95D212046FFF791F94B
:1058CC0023680E49DB6820460222BDE8F0471847E2
:1058DC0095690D009C690D009F690D00A2690D0072
:1058EC00A7690D00C0E70320A5690D00AA690D008A
:1058FC00AD690D0000690D00B5690D00C0690D00A2
:10590C002DE9F04385B0D0F820900C9C05460F464D
:10591C0090461E4600F03CFA814505D1494800F0FE
:10592C0094FB002840F08A802B6A474A01924FF082
:10593C00000901A803938DF8089000F03EFD49463C
:10594C004046FEF74DFE41498046012201A800F079
:10595C00BDFD4146FFF728F93FB13D49012201A8A1
:10596C0000F0B4FD3946FFF71FF93EB13949012269
:10597C0001A800F0ABFD3146FFF716F92379DF07DC
:10598C000ED5A6682F21304600F007FF00B1461C4B
:10599C003149012201A800F099FD3146FFF704F9C5
:1059AC0023799E0707D52D49022201A800F08EFD10
:1059BC00E16800F00FFD2379580714D526693346AA
:1059CC001F4613F8012B2AB1202A01D11E46F7E7F6
:1059DC00282AF5D12249022201A800F077FDBA1B32
:1059EC00314600F083FD2379190707D51D490122A3
:1059FC0001A800F06BFD616900F0FEFC2379DA066A
:105A0C0008D5042218490DEB020000F05FFDA169D6
:105A1C0000F0E0FC23799B0607D51449062201A867
:105A2C0000F054FDE169FFF7BFF801A800F0AFFCEE
:105A3C00286A0F4903680222DB68984705B0BDE865
:105A4C00F08300BFC0E70320E8690D0076690D0004
:105A5C00C3690D00C5690D00C7690D00C9690D004A
:105A6C00CC690D00CF690D00D1690D00D6690D0010
:105A7C00C0690D00024B1A68024B1A60704700BFD8
:105A8C007CE5032064E603200021FEF7C1BD10B5C0
:105A9C008368044613B1032201469847204610BD83
:105AAC0010B50446FFF7F3FF204610BD0348044A27
:105ABC0004490023836000F0BFBD00BF68E60320EB
:105ACC00E4E50320AD5A0D00014B1860704700BF90
:105ADC0080E5032008B50B4B43B100F059F903687E
:105AEC001B699847002801DDAFF30080064B43B1DA
:105AFC0000F0D6F903681B699847002801DDAFF365
:105B0C00008008BD000000000000000008B5FFF791
:105B1C00E1FFFEF74DFC014B186008BDD4E70320F4
:105B2C000248034A0349121A00F0A0BD00F40320F6
:105B3C0004F40320B06C0D0007B5002300931A4643
:105B4C006FF07701FEF776FD03B05DF804FB000003
:105B5C0007B543880A2B08D0502B0BD1094B1B6877
:105B6C004BB103B05DF804EB1847FFF7E5FF03B04A
:105B7C005DF804FB002300931A466FF07701FEF7E3
:105B8C0059FDF4E77CE6032038B5124C1248134D4E
:105B9C000021FEF7D1FD2368AB42114B0CBF012253
:105BAC0000221A7002D0FFF7BBFF2560FEF7F0FB56
:105BBC00044600F08BFD0B4B13B12046AFF3008075
:105BCC0000210848FEF790FDBDE83840064800214A
:105BDC00FEF726BD00F40320D55A0D001E1C279A93
:105BEC0078E60320000000005D5B0D00704710B5E7
:105BFC001821044600F025FD204610BDF0B5037DAC
:105C0C00062B8DB00E4600F104074FF0000412D0A5
:105C1C0000F1080515F8011D0A223046FEF721FF98
:105C2C00AF42044419D0002CF4D02E213046FEF79C
:105C3C0009FF0444EEE72F236A4639460A208DF803
:105C4C000040FEF7DDFB684600F08DFD3368024630
:105C5C00DB68694630469847044620460DB0F0BDD7
:105C6C0010B5054B0446112240F8043B002100F00E
:105C7C0025FD204610BD00BF7C6A0D000346074A77
:105C8C0010B543F8042B01F1100251F8044B43F802
:105C9C00044B9142F9D10A781A7010BD7C6A0D0040
:105CAC0010B59DF8084044EA032343EA024242EA55
:105CBC00016104234160037510BD13B5CB780093CB
:105CCC008B784A780978FFF7EBFF02B010BD41746E
:105CDC007047704708B50021007CFEF759FC40EA7C
:105CEC00E07008BD08B50121007CFEF751FC40EACC
:105CFC00E07008BD08B5007CFEF742FC20EAE070BD
:105D0C0008BD08B5007CFEF733FC20EAE07008BD46
:105D1C0013B50446007C0191FEF732FC0028019972
:105D2C0001DC607C20B1207CFEF73AFC20EAE070BC
:105D3C0002B010BD007CFEF73BBC10B5142104462C
:105D4C0000F07FFC204610BD10B54FF47A7304466A
:105D5C0008460021C4E90113044B2360012320747D
:105D6C0063741146FEF7ECFB204610BD906A0D00E3
:105D7C00007C0022FEF7ECBB007CFEF7F1BB10B5FB
:105D8C0014220446002100F099FC204610BD0000AE
:105D9C0010B5104C88B003A8FFF7F1FF2178BFF3C2
:105DAC005B8F11F0010111D120460191FEF77CF9B6
:105DBC00019958B103AA0848FFF7C6FF2046FEF721
:105DCC0078F9064A0649044800F036FC024808B047
:105DDC0010BD00BF80E6032084E60320E4E5032029
:105DEC00DF5C0D0070474174704708B5007CFEF70E
:105DFC004FFB20EAE07008BD08B5007CFEF720FBE5
:105E0C0020EAE07008BD08B5007CFEF729FB40EAEB
:105E1C00E07008BD08B5007CFEF71AFB40EAE070A4
:105E2C0008BD007CFEF724BB37B5457C04462DB17C
:105E3C00207C03B0BDE83040FEF7FABA007C01913B
:105E4C00FEF726FB00280199F2DC284603B030BD92
:105E5C0010B51421044600F0F4FB204610BD0000E0
:105E6C0010B54FF0000C0446084611464FF47A72F8
:105E7C00C4E901C2044A22600122207462741A46E9
:105E8C00FEF7C6FA204610BDC06A0D00007C002348
:105E9C00FEF706BB0022FFF7F9BF007CFEF7C0BA85
:105EAC0013B50E4C2178BFF35B8F11F0010112D1A9
:105EBC0020460191FEF7F8F8019960B1084A094BA8
:105ECC000948FFF7CDFF2046FEF7F3F8074A0849CB
:105EDC00054800F0B1FB044802B010BD98E6032061
:105EEC009CE6032020E70320A4E70320E4E503203D
:105EFC00F15D0D007047F8B5064615460C468F1837
:105F0C00BC4206D0336814F8011B9B683046984796
:105F1C00F6E72846F8BD007C0022FEF7C9BA007CE3
:105F2C000021FEF7CDBA007C0021FEF7D1BA007C2F
:105F3C000021FEF7D5BA007C0021FEF7D9BA10B5C6
:105F4C001421044600F07DFB204610BD10B54FF423
:105F5C007A73044608460021C4E90113034B2360FD
:105F6C0020741146FEF7D4FA204610BDF06A0D00DD
:105F7C00002240681146FEF77FBB002240681146A4
:105F8C00FEF79ABB002240681146FEF7A5BB40689D
:105F9C000022FEF799BB4068002281F00101FEF758
:105FAC0083BB002340681A461946FEF775BB0023D5
:105FBC0040681A461946FEF767BB00224068114636
:105FCC00FEF74ABB406800220221FEF74DBB0023BE
:105FDC0040681A46FEF738BB024B04225A60024A4C
:105FEC001A607047B8E70320186B0D000023406857
:105FFC001A46FEF729BB406800220221FEF734BB8B
:10600C00002240681146FEF727BB0022406811466B
:10601C00FEF732BB002340681A461946FEF734BB24
:10602C00002340681A461946FEF736BB406800222A
:10603C0081F00101FEF738BB40680022FEF744BB3B
:10604C00002240681146FEF747BB0022406811460B
:10605C00FEF732BB2DE9F043002495B016460D46F1
:10606C000746FFF7FDFD214618220EA8009400F00C
:10607C0025FB4023CDE90C3421466B460CAA304657
:10608C00FEF76EF90446002846D1024601216868E5
:10609C00FEF7F2FA0221804622466868FEF7ECFA17
:1060AC00009E81462146002E36D0002934D17368DB
:1060BC00022B03D00A2B0BD0F669F4E7B8F1000FD2
:1060CC0004D0716938460431FFF7F7FD4146F3E718
:1060DC00B9F1000F01D14946EEE77469102201A80D
:1060EC0000F0ECFA06238DF8143001AD04F108032E
:1060FC001834186859682A4603C20833A342154657
:10610C00F7D101A906A807ADFFF7B8FD0FCD3C1DCF
:10611C000FC42B682370DEE70098FEF719F9384698
:10612C0015B0BDE8F0830000024B034A1A60002250
:10613C005A607047C0E703204C6B0D0000F1100350
:10614C00012213F8101C0129184608D153F8041C1D
:10615C0002EB4102013A03F11003F2D1704702291C
:10616C0004BF53F8041C5218F4E70EB4F0B588B011
:10617C0000AF07F13405102155F8042B7A60044662
:10618C002B467818FD60FEF7CFFA0F287A681AD9DB
:10619C0000F1080323F007036E46ADEB030D411C21
:1061AC002B466846FD60FEF7BFFA021E04DD23682D
:1061BC0069469B6820469847B5462037BD46BDE8E2
:1061CC00F04003B070470028F7D0236802469B6864
:1061DC0007F1100120469847EFE710B50368044615
:1061EC009B689847A368013BA3602BB923682046A2
:1061FC00DB68BDE81040184710BD07B503688DF883
:10620C0007109B6801220DF10701984703B05DF858
:10621C0004FB38B50B6803604D6843689D42044627
:10622C000CD015B16B6801336B60606828B14368A2
:10623C00013B43600BB9FFF7D0FF6560204638BDCA
:10624C000B461146002210B5C0E9002204468360BB
:10625C000BB9204610BDFFF7DCFFFAE78368EBB102
:10626C001A78032A1AD8DFE802F00417021B05205B
:10627C00704702685B685268D05C2D2812D0A0F180
:10628C003003092B0ED974280ED066280CD0A0F13F
:10629C006E035842584170470620704700207047E3
:1062AC0004207047032070470220704710B5044645
:1062BC00FFF7D4FF02280ED0C31EDBB2012B14D87B
:1062CC002268A36850685B68BDE810400A22002170
:1062DC00184400F0F1BA2268A36852685B68D05C7D
:1062EC00A0F174035842584110BD0020FCE7000097
:1062FC0038B50023C0E9003304460E48C4E9020354
:10630C00A9B10B78032B06D08BB9136858684B686E
:10631C00C35C6E2B07D013684D6858688B68284493
:10632C005B1BA060E36011462046FFF772FF20461E
:10633C0038BD00BFC2690D0038B500250B46C0E959
:10634C000055C0E90255C0E90455044611464BB14D
:10635C001A78012A06D103F11002DB6882604361CE
:10636C00FFF757FF204638BD10B54369044663B1AB
:10637C008068E060013B1030A0602061636113B164
:10638C00FFF7DCFEA060012000E0184610BD10B540
:10639C007D210446FFF731FF01232371204610BDF8
:1063AC0008B50379012B02D0022B04D008BD2C2197
:1063BC00FFF723FFFAE73A21FAE710B50446FFF797
:1063CC00EFFF20467B21FFF718FF002323712046A7
:1063DC0010BD000013B504460191FFF7E1FF2368DF
:1063EC00019ADB6803492046984701232046237114
:1063FC0002B010BD9F690D0013B504460191FFF763
:10640C00CFFF2368019ADB68034920469847012394
:10641C002046237102B010BD786B0D002DE9F041C0
:10642C000D4617462221DFF8A08004462F44FFF7C3
:10643C00E4FE2946BD422A4638D015F8016B222EBF
:10644C0003D05C2E01D01F2EF4D82368521A9B68FF
:10645C00204698475C212046FFF7CFFE0D2E0AD828
:10646C00072E1CD9A6F10803052B18D8DFE803F07A
:10647C000D0F11171315222E01D05C2E0FD13146A2
:10648C002046FFF7BAFE2946D4E76221F8E77421CB
:10649C00F6E76E21F4E76621F2E77221F0E7236854
:1064AC003246DB68414620469847ECE78D4204D0E3
:1064BC0023686A1A9B682046984722212046FFF7DA
:1064CC009CFEBDE8F08100BF7B6B0D0013B504464C
:1064DC00CDE90021FFF764FF2046DDE90021FFF73D
:1064EC009DFF02232046237102B010BD13B5044654
:1064FC00CDE90021FFF754FF2046DDE90021FFF72D
:10650C008DFF01232046237102B010BD232813B543
:10651C0002D9002002B010BDA0F10B03022B1AD837
:10652C00174C2178BFF35B8F11F001010BD1204682
:10653C000191FDF7B9FD019928B11248FEF742F916
:10654C002046FDF7B6FD0F4B1878FDF7F1FF00283C
:10655C00DFD10120DEE7012809D800F045F8002141
:10656C00007CFDF7CDFF80F00100C0B2D2E7093806
:10657C000128EED8FFF794FC007CFDF781FFF2E7D1
:10658C00C8E70320CCE703200D2810B504469CBFB8
:10659C000E34A4B22046FFF7B9FF50B103212046B8
:1065AC00FDF7E6FE032804D12046BDE81040FDF7B8
:1065BC00E7BE002010BD000038B500232025438025
:1065CC00142304460380856005610649284600F0C3
:1065DC003CF804496060284600F037F8E06020463B
:1065EC0038BD00BF816B0D0030B50F4D2978BFF35E
:1065FC005B8F11F0010487B013D12846FDF754FDD1
:10660C0078B101A8FFF7D8FF01AA21460748FFF788
:10661C009DFC2846FDF74DFD054A0649034800F050
:10662C000BF8024807B030BDD8E70320DCE70320A5
:10663C00E4E50320015F0D000B460146184600F00F
:10664C0007B8FDF724BDFDF71EBDFDF71EBD00000C
:10665C0010B5054C13462CB10A4601460220AFF387
:10666C00008010BD2046FCE7000000000A44914267
:10667C0000F1FF3300D1704710B511F8014B03F84E
:10668C00014F9142F9D110BD884210B501EB0204C3
:10669C0002D98442234607D8431EA14208D011F8E0
:1066AC00012B03F8012FF8E7024401468A4200D17E
:1066BC0010BD13F8014D02F8014DF7E702440346F3
:1066CC00934200D1704703F8011BF9E738B50D4B25
:1066DC001D68AB6B04467BB91820FEF70DF80A4A0F
:1066EC000A4BA863C0E90023094B83600B23838109
:1066FC0001220023C0E90423AB6B00221C615A6108
:10670C0038BD00BF80E503200E33CDAB34126DE6EF
:10671C00ECDE0500C9B2034610F8012B1AB18A420F
:10672C00F9D118467047002918BF0023F9E710B5B6
:10673C000446FFF7EFFF18B9204600F014F8204488
:10674C0010BD10F8012B11F8013B012A28BF9A4209
:10675C00F7D0D01A7047034611F8012B03F8012B20
:10676C00002AF9D17047034613F8012B002AFBD1FC
:10677C00181A0138704710B56AB10139841810F82D
:10678C00013B11F8012F934203D1A04201D0002B01
:10679C00F5D1981A10BD1046FCE738B503460C46E7
:1067AC0069B9BDE83840FFF7B5BF431C0546214623
:1067BC001846FFF7AFFF0028F7D1284638BD002553
:1067CC00F5E700002DE9F0473A4E86468C466046C8
:1067DC001CF8014BA55D15F00805F8D12D2C33D113
:1067EC009CF800404FF0010800F1020C002B5CD02B
:1067FC00102B0CD1302C0AD19CF8000000F0DF00DB
:10680C0058284DD19CF8014010230CF1020C08F1D2
:10681C000047013F0026B7FBF3F9304603FB197A1A
:10682C00A4F13005092D18D82C46A34224DD751C83
:10683C0007D081451DD301D1A2451ADB00FB0340D3
:10684C0001261CF8014BEBE72B2C08BF9CF80040F1
:10685C00A84608BF00F1020CC8E7A4F14105192DA8
:10686C0001D8373CE1E7A4F16105192D04D8573C58
:10687C00DBE74FF0FF36E4E7731C06D12223CEF89A
:10688C000030384642B9BDE8F087B8F1000F00D0AF
:10689C004042002AF7D00EB10CF1FF311160F2E743
:1068AC003024002BB3D10823B1E7302CA4D00A2319
:1068BC00ADE700BF836B0D0013460A460146024844
:1068CC000068FFF77FBF00BF80E503201D400D006F
:1068DC0059400D0081400D0085400D000000000066
:1068EC00466F72636520416E616C6F672056616CF8
:1068FC0075653A2025690061707000000000000089
:10690C00000000000000000000000000A1400D008D
:10691C00C5400D000000000000000000D1400D003B
:10692C0005410D0069570D00C7400D000000000027
:10693C0000000000B3470D00A9470D009F470D0054
:10694C0095470D0089470D007D470D0071470D00DF
:10695C0069470D005F470D0055470D0061600D0044
:10696C00626175640053657269616C00536572698C
:10697C00616C31004A534F4E53747265616D4C6FAC
:10698C006748616E646C657200253031307520008B
:10699C005D20002564002C200028293A2000205B73
:1069AC0000636F6465203D200064657461696C73DD
:1069BC00203D20000D0A006D00630066006C6E0027
:1069CC00666E007400636F64650064657461696C65
:1069DC00000000000000000000000000274B0D002C
:1069EC004D4B0D000D4B0D0077610D0000000000AC
:1069FC0000000000914F0D00A94F0D0069570D00CC
:106A0C00C7400D000000000000000000BD4F0D004D
:106A1C00D14F0D000D590D00154B0D00000000005D
:106A2C0000000000254B0D005B4B0D00A5560D0022
:106A3C00174B0D000000000000000000234B0D0060
:106A4C00694B0D00D94E0D00854B0D0025592D2598
:106A5C006D2D25645425483A254D3A2553257A0049
:106A6C0061736374696D6500000000000000000034
:106A7C00095C0D00F95B0D00FB5B0D0000000000D4
:106A8C0000000000DF5C0D00475D0D001D5D0D007A
:106A9C00014A0D000F5D0D00E15C0D00F15C0D0075
:106AAC00415D0D00015D0D00DB5C0D000000000080
:106ABC0000000000F15D0D005D5E0D00355E0D0007
:106ACC00014A0D00055E0D00215E0D00135E0D00E8
:106ADC002F5E0D00F35D0D00F75D0D000000000052
:106AEC0000000000015F0D004B5F0D00235F0D00E7
:106AFC00035F0D002B5F0D00335F0D003B5F0D003E
:106B0C00435F0D000000000000000000DB5F0D0083
:106B1C00D15F0D00C75F0D007D5F0D00BB5F0D00E9
:106B2C00AF5F0D00A35F0D009B5F0D00915F0D002B
:106B3C00875F0D0061600D00000000000000000088
:106B4C00F95F0D0003600D000D600D0017600D0066
:106B5C0021600D002D600D0039600D0045600D00A9
:106B6C004D600D0057600D0061600D0025750075BE
:106B7C0025303478000000202020202020202020E8
:106B8C0028282828282020202020202020202020D1
:106B9C002020202020202088101010101010101001
:106BAC001010101010101004040404040404040445
:106BBC0004101010101010104141414141410101CD
:106BCC0001010101010101010101010101010101A9
:106BDC0001011010101010104242424242420202B7
:106BEC000202020202020202020202020202020279
:106BFC000202101010102000000000000000000025
:106C0C000000000000000000000000000000000078
:106C1C000000000000000000000000000000000068
:106C2C000000000000000000000000000000000058
:106C3C000000000000000000000000000000000048
:106C4C000000000000000000000000000000000038
:106C5C000000000000000000000000000000000028
:106C6C000000000000000000000000000000000018
:106C7C0000000000000000008D420D00BD470D001B
:106C8C0005480D00D9490D0059570D00815A0D00CA
:106C9C00B95A0D00E55F0D0035610D0000000000D4
:046CAC0000000000E4
:046CB00000000000E0
:106CB40013000000306A0D00486A0D006C6A0D0074
:106CC40084E5032000000000000000000000000034
:106CD40000000000000000000000000000000000B0
:106CE40000000000000000000000000000000000A0
:106CF4000000000000000000000000000000000090
:106D0400000000000000000000000000000000007F
:106D1400000000000000000000000000000000006F
:046D2400000000006B
:106D2800FFFFFFFF00000102030405060708090A28
:106D38000B0C0D0E0F101112131415161718191A23
:086D48001B1C1D1E1F2028006A
:046D5000785634122B
:04000003D000401CCD
:00000001FF
